{
  "abi": [
    {
      "inputs": [
        {
          "internalType": "contract ISwapRouter",
          "name": "_swapRouter",
          "type": "address"
        },
        {
          "internalType": "address",
          "name": "_factory",
          "type": "address"
        },
        {
          "internalType": "address",
          "name": "_weth9",
          "type": "address"
        }
      ],
      "stateMutability": "nonpayable",
      "type": "constructor"
    },
    {
      "anonymous": false,
      "inputs": [
        {
          "indexed": false,
          "internalType": "contract IUniswapV3Pool",
          "name": "ewdfjo",
          "type": "address"
        }
      ],
      "name": "CheckAddr",
      "type": "event"
    },
    {
      "inputs": [],
      "name": "WETH9",
      "outputs": [
        {
          "internalType": "address",
          "name": "",
          "type": "address"
        }
      ],
      "stateMutability": "view",
      "type": "function"
    },
    {
      "inputs": [
        {
          "internalType": "uint256",
          "name": "_swapAmount0",
          "type": "uint256"
        },
        {
          "internalType": "uint256",
          "name": "_swapAmount1",
          "type": "uint256"
        },
        {
          "internalType": "uint256",
          "name": "_fee0",
          "type": "uint256"
        },
        {
          "internalType": "uint256",
          "name": "_fee1",
          "type": "uint256"
        },
        {
          "internalType": "address",
          "name": "_token0",
          "type": "address"
        },
        {
          "internalType": "address",
          "name": "_token1",
          "type": "address"
        },
        {
          "internalType": "uint256",
          "name": "_amountEarnedToken0",
          "type": "uint256"
        },
        {
          "internalType": "uint256",
          "name": "_amountEarnedToken1",
          "type": "uint256"
        },
        {
          "internalType": "address",
          "name": "_payer",
          "type": "address"
        }
      ],
      "name": "_paybackPool",
      "outputs": [],
      "stateMutability": "nonpayable",
      "type": "function"
    },
    {
      "inputs": [],
      "name": "factory",
      "outputs": [
        {
          "internalType": "address",
          "name": "",
          "type": "address"
        }
      ],
      "stateMutability": "view",
      "type": "function"
    },
    {
      "inputs": [
        {
          "components": [
            {
              "internalType": "address",
              "name": "token0",
              "type": "address"
            },
            {
              "internalType": "address",
              "name": "token1",
              "type": "address"
            },
            {
              "internalType": "uint24",
              "name": "fee1",
              "type": "uint24"
            },
            {
              "internalType": "uint256",
              "name": "amount0",
              "type": "uint256"
            },
            {
              "internalType": "uint256",
              "name": "amount1",
              "type": "uint256"
            },
            {
              "internalType": "uint24",
              "name": "fee2",
              "type": "uint24"
            },
            {
              "internalType": "uint24",
              "name": "fee3",
              "type": "uint24"
            }
          ],
          "internalType": "struct FlashSwap.FlashParams",
          "name": "_flashParams",
          "type": "tuple"
        }
      ],
      "name": "initFlash",
      "outputs": [],
      "stateMutability": "nonpayable",
      "type": "function"
    },
    {
      "inputs": [],
      "name": "refundETH",
      "outputs": [],
      "stateMutability": "payable",
      "type": "function"
    },
    {
      "inputs": [],
      "name": "swapRouter",
      "outputs": [
        {
          "internalType": "contract ISwapRouter",
          "name": "",
          "type": "address"
        }
      ],
      "stateMutability": "view",
      "type": "function"
    },
    {
      "inputs": [
        {
          "internalType": "address",
          "name": "token",
          "type": "address"
        },
        {
          "internalType": "uint256",
          "name": "amountMinimum",
          "type": "uint256"
        },
        {
          "internalType": "address",
          "name": "recipient",
          "type": "address"
        }
      ],
      "name": "sweepToken",
      "outputs": [],
      "stateMutability": "payable",
      "type": "function"
    },
    {
      "inputs": [
        {
          "internalType": "uint256",
          "name": "_fee0",
          "type": "uint256"
        },
        {
          "internalType": "uint256",
          "name": "_fee1",
          "type": "uint256"
        },
        {
          "internalType": "bytes",
          "name": "_data",
          "type": "bytes"
        }
      ],
      "name": "uniswapV3FlashCallback",
      "outputs": [],
      "stateMutability": "nonpayable",
      "type": "function"
    },
    {
      "inputs": [
        {
          "internalType": "uint256",
          "name": "amountMinimum",
          "type": "uint256"
        },
        {
          "internalType": "address",
          "name": "recipient",
          "type": "address"
        }
      ],
      "name": "unwrapWETH9",
      "outputs": [],
      "stateMutability": "payable",
      "type": "function"
    },
    {
      "stateMutability": "payable",
      "type": "receive"
    }
  ],
  "bytecode": {
    "object": "0x60e06040523480156200001157600080fd5b50604051620017843803806200178483398101604081905262000034916200005c565b6001600160601b0319606092831b811660805290821b811660a05291901b1660c052620000c8565b60008060006060848603121562000071578283fd5b83516200007e81620000af565b60208501519093506200009181620000af565b6040850151909250620000a481620000af565b809150509250925092565b6001600160a01b0381168114620000c557600080fd5b50565b60805160601c60a05160601c60c05160601c61164b62000139600039806105db5280610755528061078052806107d15280610942525080609a528061037e528061046952806104f65280610d215280610d675280610ddb52508061023d52806105ff5280610714525061164b6000f3fe60806040526004361061008a5760003560e01c8063abb54e1611610059578063abb54e1614610165578063c31c9c0714610185578063c45a01551461019a578063df2ab5bb146101af578063e9cbafb0146101c2576100fa565b806312210e8a146100ff5780632384463b1461010757806349404b7c146101275780634aa4a4fc1461013a576100fa565b366100fa57336001600160a01b037f000000000000000000000000000000000000000000000000000000000000000016146100f8576040805162461bcd60e51b81526020600482015260096024820152684e6f7420574554483960b81b604482015290519081900360640190fd5b005b600080fd5b6100f86101e2565b34801561011357600080fd5b506100f86101223660046112c9565b6101f4565b6100f861013536600461137c565b61037a565b34801561014657600080fd5b5061014f6104f4565b60405161015c91906114a8565b60405180910390f35b34801561017157600080fd5b506100f8610180366004611422565b610518565b34801561019157600080fd5b5061014f6105d9565b3480156101a657600080fd5b5061014f6105fd565b6100f86101bd3660046111b0565b610621565b3480156101ce57600080fd5b506100f86101dd3660046113a7565b6106ff565b47156101f2576101f233476109e8565b565b6000604051806060016040528083600001516001600160a01b0316815260200183602001516001600160a01b03168152602001836040015162ffffff16815250905060006102627f000000000000000000000000000000000000000000000000000000000000000083610ad7565b90507fe8398af2944eb0aea1b7a774bd5f409101e46ec9ad5b89d8967bd9cae1e3aae88160405161029391906114a8565b60405180910390a1806001600160a01b031663490e6cbc30856060015186608001516040518060c001604052808960600151815260200189608001518152602001336001600160a01b031681526020018881526020018960a0015162ffffff1681526020018960c0015162ffffff168152506040516020016103159190611596565b6040516020818303038152906040526040518563ffffffff1660e01b815260040161034394939291906114bc565b600060405180830381600087803b15801561035d57600080fd5b505af1158015610371573d6000803e3d6000fd5b50505050505050565b60007f00000000000000000000000000000000000000000000000000000000000000006001600160a01b03166370a08231306040518263ffffffff1660e01b815260040180826001600160a01b0316815260200191505060206040518083038186803b1580156103e957600080fd5b505afa1580156103fd573d6000803e3d6000fd5b505050506040513d602081101561041357600080fd5b5051905082811015610461576040805162461bcd60e51b8152602060048201526012602482015271496e73756666696369656e7420574554483960701b604482015290519081900360640190fd5b80156104ef577f00000000000000000000000000000000000000000000000000000000000000006001600160a01b0316632e1a7d4d826040518263ffffffff1660e01b815260040180828152602001915050600060405180830381600087803b1580156104cd57600080fd5b505af11580156104e1573d6000803e3d6000fd5b505050506104ef82826109e8565b505050565b7f000000000000000000000000000000000000000000000000000000000000000081565b60006105248a89610bbb565b905060006105328a89610bbb565b905061053f873084610bd1565b61054a863083610bd1565b811561055c5761055c87303385610d1f565b801561056e5761056e86303384610d1f565b8185111561059d5760006105828684610eaf565b905061058f883083610bd1565b61059b88308684610d1f565b505b808411156105cc5760006105b18583610eaf565b90506105be883083610bd1565b6105ca88308684610d1f565b505b5050505050505050505050565b7f000000000000000000000000000000000000000000000000000000000000000081565b7f000000000000000000000000000000000000000000000000000000000000000081565b6000836001600160a01b03166370a08231306040518263ffffffff1660e01b815260040180826001600160a01b0316815260200191505060206040518083038186803b15801561067057600080fd5b505afa158015610684573d6000803e3d6000fd5b505050506040513d602081101561069a57600080fd5b50519050828110156106e8576040805162461bcd60e51b815260206004820152601260248201527124b739bab33334b1b4b2b73a103a37b5b2b760711b604482015290519081900360640190fd5b80156106f9576106f9848383610ebf565b50505050565b600061070d828401846111eb565b905061073d7f00000000000000000000000000000000000000000000000000000000000000008260600151611006565b5060608101518051602090910151825161077a9083907f000000000000000000000000000000000000000000000000000000000000000090610bd1565b6107a9817f00000000000000000000000000000000000000000000000000000000000000008560200151610bd1565b60006107b9846000015189610bbb565b905060006107cb856020015189610bbb565b905060007f00000000000000000000000000000000000000000000000000000000000000006001600160a01b031663414bf389604051806101000160405280876001600160a01b03168152602001886001600160a01b03168152602001896080015162ffffff168152602001306001600160a01b031681526020014260c80181526020018960200151815260200186815260200160006001600160a01b03168152506040518263ffffffff1660e01b8152600401610889919061152d565b602060405180830381600087803b1580156108a357600080fd5b505af11580156108b7573d6000803e3d6000fd5b505050506040513d601f19601f820116820180604052508101906108db9190611364565b60408051610100810182526001600160a01b038881168252878116602083015260a08a81015162ffffff16838501523060608401524260c80160808401528a519083015260c08201869052600060e08301819052925163414bf38960e01b815293945091927f00000000000000000000000000000000000000000000000000000000000000009092169163414bf389916109779160040161152d565b602060405180830381600087803b15801561099157600080fd5b505af11580156109a5573d6000803e3d6000fd5b505050506040513d601f19601f820116820180604052508101906109c99190611364565b90506105cc876000015188602001518d8d8a8a88888f60400151610518565b604080516000808252602082019092526001600160a01b0384169083906040518082805190602001908083835b60208310610a345780518252601f199092019160209182019101610a15565b6001836020036101000a03801982511681845116808217855250505050505090500191505060006040518083038185875af1925050503d8060008114610a96576040519150601f19603f3d011682016040523d82523d6000602084013e610a9b565b606091505b50509050806104ef576040805162461bcd60e51b815260206004820152600360248201526253544560e81b604482015290519081900360640190fd5b600081602001516001600160a01b031682600001516001600160a01b031610610aff57600080fd5b50805160208083015160409384015184516001600160a01b0394851681850152939091168385015262ffffff166060808401919091528351808403820181526080840185528051908301206001600160f81b031960a085015294901b6bffffffffffffffffffffffff191660a183015260b58201939093527fe34f199b19b2b4f47f68442619d555527d244f78a3297ea89325f843f87b8b5460d5808301919091528251808303909101815260f5909101909152805191012090565b80820182811015610bcb57600080fd5b92915050565b604080516001600160a01b038481166024830152604480830185905283518084039091018152606490920183526020820180516001600160e01b031663095ea7b360e01b1781529251825160009485949389169392918291908083835b60208310610c4d5780518252601f199092019160209182019101610c2e565b6001836020036101000a0380198251168184511680821785525050505050509050019150506000604051808303816000865af19150503d8060008114610caf576040519150601f19603f3d011682016040523d82523d6000602084013e610cb4565b606091505b5091509150818015610ce2575080511580610ce25750808060200190516020811015610cdf57600080fd5b50515b610d18576040805162461bcd60e51b8152602060048201526002602482015261534160f01b604482015290519081900360640190fd5b5050505050565b7f00000000000000000000000000000000000000000000000000000000000000006001600160a01b0316846001600160a01b0316148015610d605750804710155b15610e82577f00000000000000000000000000000000000000000000000000000000000000006001600160a01b031663d0e30db0826040518263ffffffff1660e01b81526004016000604051808303818588803b158015610dc057600080fd5b505af1158015610dd4573d6000803e3d6000fd5b50505050507f00000000000000000000000000000000000000000000000000000000000000006001600160a01b031663a9059cbb83836040518363ffffffff1660e01b815260040180836001600160a01b0316815260200182815260200192505050602060405180830381600087803b158015610e5057600080fd5b505af1158015610e64573d6000803e3d6000fd5b505050506040513d6020811015610e7a57600080fd5b506106f99050565b6001600160a01b038316301415610ea357610e9e848383610ebf565b6106f9565b6106f984848484611029565b80820382811115610bcb57600080fd5b604080516001600160a01b038481166024830152604480830185905283518084039091018152606490920183526020820180516001600160e01b031663a9059cbb60e01b1781529251825160009485949389169392918291908083835b60208310610f3b5780518252601f199092019160209182019101610f1c565b6001836020036101000a0380198251168184511680821785525050505050509050019150506000604051808303816000865af19150503d8060008114610f9d576040519150601f19603f3d011682016040523d82523d6000602084013e610fa2565b606091505b5091509150818015610fd0575080511580610fd05750808060200190516020811015610fcd57600080fd5b50515b610d18576040805162461bcd60e51b815260206004820152600260248201526114d560f21b604482015290519081900360640190fd5b60006110128383610ad7565b9050336001600160a01b03821614610bcb57600080fd5b604080516001600160a01b0385811660248301528481166044830152606480830185905283518084039091018152608490920183526020820180516001600160e01b03166323b872dd60e01b178152925182516000948594938a169392918291908083835b602083106110ad5780518252601f19909201916020918201910161108e565b6001836020036101000a0380198251168184511680821785525050505050509050019150506000604051808303816000865af19150503d806000811461110f576040519150601f19603f3d011682016040523d82523d6000602084013e611114565b606091505b5091509150818015611142575080511580611142575080806020019051602081101561113f57600080fd5b50515b611179576040805162461bcd60e51b815260206004820152600360248201526229aa2360e91b604482015290519081900360640190fd5b505050505050565b80356001600160a01b038116811461119857600080fd5b919050565b803562ffffff8116811461119857600080fd5b6000806000606084860312156111c4578283fd5b6111cd84611181565b9250602084013591506111e260408501611181565b90509250925092565b60008183036101008112156111fe578182fd5b6040805160c0810167ffffffffffffffff828210818311171561121d57fe5b8184528635835260208701356020840152611239848801611181565b838501526060605f198601121561124e578586fd5b83519450606085019150848210818311171561126657fe5b50825261127560608601611181565b835261128360808601611181565b602084015261129460a0860161119d565b828401528260608201526112aa60c0860161119d565b60808201526112bb60e0860161119d565b60a082015295945050505050565b600060e082840312156112da578081fd5b60405160e0810181811067ffffffffffffffff821117156112f757fe5b60405261130383611181565b815261131160208401611181565b60208201526113226040840161119d565b6040820152606083013560608201526080830135608082015261134760a0840161119d565b60a082015261135860c0840161119d565b60c08201529392505050565b600060208284031215611375578081fd5b5051919050565b6000806040838503121561138e578182fd5b8235915061139e60208401611181565b90509250929050565b600080600080606085870312156113bc578081fd5b8435935060208501359250604085013567ffffffffffffffff808211156113e1578283fd5b818701915087601f8301126113f4578283fd5b813581811115611402578384fd5b886020828501011115611413578384fd5b95989497505060200194505050565b60008060008060008060008060006101208a8c031215611440578485fd5b8935985060208a0135975060408a0135965060608a0135955061146560808b01611181565b945061147360a08b01611181565b935060c08a0135925060e08a013591506114906101008b01611181565b90509295985092959850929598565b62ffffff169052565b6001600160a01b0391909116815260200190565b600060018060a01b038616825260208581840152846040840152608060608401528351806080850152825b818110156115035785810183015185820160a0015282016114e7565b81811115611514578360a083870101525b50601f01601f19169290920160a0019695505050505050565b81516001600160a01b03908116825260208084015182169083015260408084015162ffffff16908301526060808401518216908301526080808401519083015260a0838101519083015260c0808401519083015260e09283015116918101919091526101000190565b81518152602080830151818301526040808401516001600160a01b03908116828501526060808601518051831691860191909152928301511660808085019190915291015162ffffff1660a08301528201516101008201906115fb60c084018261149f565b5060a083015161160e60e084018261149f565b509291505056fea264697066735822122040b55c618b12834debbe0de0154e343af5762382ba981c430891243860542c1464736f6c63430007060033",
    "linkReferences": {}
  },
  "methodIdentifiers": {
    "WETH9()": "4aa4a4fc",
    "_paybackPool(uint256,uint256,uint256,uint256,address,address,uint256,uint256,address)": "abb54e16",
    "factory()": "c45a0155",
    "initFlash((address,address,uint24,uint256,uint256,uint24,uint24))": "2384463b",
    "refundETH()": "12210e8a",
    "swapRouter()": "c31c9c07",
    "sweepToken(address,uint256,address)": "df2ab5bb",
    "uniswapV3FlashCallback(uint256,uint256,bytes)": "e9cbafb0",
    "unwrapWETH9(uint256,address)": "49404b7c"
  },
  "id": 0
}