{
  "abi": [
    {
      "inputs": [
        {
          "internalType": "contract ISwapRouter",
          "name": "_swapRouter",
          "type": "address"
        },
        {
          "internalType": "address",
          "name": "_factory",
          "type": "address"
        },
        {
          "internalType": "address",
          "name": "_weth9",
          "type": "address"
        }
      ],
      "stateMutability": "nonpayable",
      "type": "constructor"
    },
    {
      "anonymous": false,
      "inputs": [
        {
          "indexed": false,
          "internalType": "uint256",
          "name": "wazy",
          "type": "uint256"
        }
      ],
      "name": "TestMe",
      "type": "event"
    },
    {
      "inputs": [],
      "name": "WETH9",
      "outputs": [
        {
          "internalType": "address",
          "name": "",
          "type": "address"
        }
      ],
      "stateMutability": "view",
      "type": "function"
    },
    {
      "inputs": [
        {
          "internalType": "uint256",
          "name": "_swapAmount0",
          "type": "uint256"
        },
        {
          "internalType": "uint256",
          "name": "_swapAmount1",
          "type": "uint256"
        },
        {
          "internalType": "uint256",
          "name": "_fee0",
          "type": "uint256"
        },
        {
          "internalType": "uint256",
          "name": "_fee1",
          "type": "uint256"
        },
        {
          "internalType": "address",
          "name": "_token0",
          "type": "address"
        },
        {
          "internalType": "address",
          "name": "_token1",
          "type": "address"
        },
        {
          "internalType": "uint256",
          "name": "_amountEarnedToken0",
          "type": "uint256"
        },
        {
          "internalType": "uint256",
          "name": "_amountEarnedToken1",
          "type": "uint256"
        },
        {
          "internalType": "address",
          "name": "_payer",
          "type": "address"
        }
      ],
      "name": "_paybackPool",
      "outputs": [],
      "stateMutability": "nonpayable",
      "type": "function"
    },
    {
      "inputs": [],
      "name": "factory",
      "outputs": [
        {
          "internalType": "address",
          "name": "",
          "type": "address"
        }
      ],
      "stateMutability": "view",
      "type": "function"
    },
    {
      "inputs": [
        {
          "components": [
            {
              "internalType": "address",
              "name": "token0",
              "type": "address"
            },
            {
              "internalType": "address",
              "name": "token1",
              "type": "address"
            },
            {
              "internalType": "uint24",
              "name": "fee1",
              "type": "uint24"
            },
            {
              "internalType": "uint256",
              "name": "amount0",
              "type": "uint256"
            },
            {
              "internalType": "uint256",
              "name": "amount1",
              "type": "uint256"
            },
            {
              "internalType": "uint24",
              "name": "fee2",
              "type": "uint24"
            },
            {
              "internalType": "uint24",
              "name": "fee3",
              "type": "uint24"
            }
          ],
          "internalType": "struct FlashSwap.FlashParams",
          "name": "_flashParams",
          "type": "tuple"
        }
      ],
      "name": "initFlash",
      "outputs": [],
      "stateMutability": "nonpayable",
      "type": "function"
    },
    {
      "inputs": [],
      "name": "refundETH",
      "outputs": [],
      "stateMutability": "payable",
      "type": "function"
    },
    {
      "inputs": [],
      "name": "swapRouter",
      "outputs": [
        {
          "internalType": "contract ISwapRouter",
          "name": "",
          "type": "address"
        }
      ],
      "stateMutability": "view",
      "type": "function"
    },
    {
      "inputs": [
        {
          "internalType": "address",
          "name": "token",
          "type": "address"
        },
        {
          "internalType": "uint256",
          "name": "amountMinimum",
          "type": "uint256"
        },
        {
          "internalType": "address",
          "name": "recipient",
          "type": "address"
        }
      ],
      "name": "sweepToken",
      "outputs": [],
      "stateMutability": "payable",
      "type": "function"
    },
    {
      "inputs": [
        {
          "internalType": "uint256",
          "name": "_fee0",
          "type": "uint256"
        },
        {
          "internalType": "uint256",
          "name": "_fee1",
          "type": "uint256"
        },
        {
          "internalType": "bytes",
          "name": "_data",
          "type": "bytes"
        }
      ],
      "name": "uniswapV3FlashCallback",
      "outputs": [],
      "stateMutability": "nonpayable",
      "type": "function"
    },
    {
      "inputs": [
        {
          "internalType": "uint256",
          "name": "amountMinimum",
          "type": "uint256"
        },
        {
          "internalType": "address",
          "name": "recipient",
          "type": "address"
        }
      ],
      "name": "unwrapWETH9",
      "outputs": [],
      "stateMutability": "payable",
      "type": "function"
    },
    {
      "stateMutability": "payable",
      "type": "receive"
    }
  ],
  "bytecode": {
    "object": "0x60e06040523480156200001157600080fd5b50604051620017683803806200176883398101604081905262000034916200005c565b6001600160601b0319606092831b811660805290821b811660a05291901b1660c052620000c8565b60008060006060848603121562000071578283fd5b83516200007e81620000af565b60208501519093506200009181620000af565b6040850151909250620000a481620000af565b809150509250925092565b6001600160a01b0381168114620000c557600080fd5b50565b60805160601c60a05160601c60c05160601c61162f62000139600039806105a4528061071e528061074952806107d1528061093c525080609a5280610347528061043252806104bf5280610cfc5280610d425280610db652508061023d52806105c852806106dd525061162f6000f3fe60806040526004361061008a5760003560e01c8063abb54e1611610059578063abb54e1614610165578063c31c9c0714610185578063c45a01551461019a578063df2ab5bb146101af578063e9cbafb0146101c2576100fa565b806312210e8a146100ff5780632384463b1461010757806349404b7c146101275780634aa4a4fc1461013a576100fa565b366100fa57336001600160a01b037f000000000000000000000000000000000000000000000000000000000000000016146100f8576040805162461bcd60e51b81526020600482015260096024820152684e6f7420574554483960b81b604482015290519081900360640190fd5b005b600080fd5b6100f86101e2565b34801561011357600080fd5b506100f86101223660046112a4565b6101f4565b6100f8610135366004611357565b610343565b34801561014657600080fd5b5061014f6104bd565b60405161015c9190611483565b60405180910390f35b34801561017157600080fd5b506100f86101803660046113fd565b6104e1565b34801561019157600080fd5b5061014f6105a2565b3480156101a657600080fd5b5061014f6105c6565b6100f86101bd36600461118b565b6105ea565b3480156101ce57600080fd5b506100f86101dd366004611382565b6106c8565b47156101f2576101f233476109c3565b565b6000604051806060016040528083600001516001600160a01b0316815260200183602001516001600160a01b03168152602001836040015162ffffff16815250905060006102627f000000000000000000000000000000000000000000000000000000000000000083610ab2565b9050806001600160a01b031663490e6cbc30856060015186608001516040518060c001604052808960600151815260200189608001518152602001336001600160a01b031681526020018881526020018960a0015162ffffff1681526020018960c0015162ffffff168152506040516020016102de9190611571565b6040516020818303038152906040526040518563ffffffff1660e01b815260040161030c9493929190611497565b600060405180830381600087803b15801561032657600080fd5b505af115801561033a573d6000803e3d6000fd5b50505050505050565b60007f00000000000000000000000000000000000000000000000000000000000000006001600160a01b03166370a08231306040518263ffffffff1660e01b815260040180826001600160a01b0316815260200191505060206040518083038186803b1580156103b257600080fd5b505afa1580156103c6573d6000803e3d6000fd5b505050506040513d60208110156103dc57600080fd5b505190508281101561042a576040805162461bcd60e51b8152602060048201526012602482015271496e73756666696369656e7420574554483960701b604482015290519081900360640190fd5b80156104b8577f00000000000000000000000000000000000000000000000000000000000000006001600160a01b0316632e1a7d4d826040518263ffffffff1660e01b815260040180828152602001915050600060405180830381600087803b15801561049657600080fd5b505af11580156104aa573d6000803e3d6000fd5b505050506104b882826109c3565b505050565b7f000000000000000000000000000000000000000000000000000000000000000081565b60006104ed8a89610b96565b905060006104fb8a89610b96565b9050610508873084610bac565b610513863083610bac565b81156105255761052587303385610cfa565b80156105375761053786303384610cfa565b8185111561056657600061054b8684610e8a565b9050610558883083610bac565b61056488308684610cfa565b505b8084111561059557600061057a8583610e8a565b9050610587883083610bac565b61059388308684610cfa565b505b5050505050505050505050565b7f000000000000000000000000000000000000000000000000000000000000000081565b7f000000000000000000000000000000000000000000000000000000000000000081565b6000836001600160a01b03166370a08231306040518263ffffffff1660e01b815260040180826001600160a01b0316815260200191505060206040518083038186803b15801561063957600080fd5b505afa15801561064d573d6000803e3d6000fd5b505050506040513d602081101561066357600080fd5b50519050828110156106b1576040805162461bcd60e51b815260206004820152601260248201527124b739bab33334b1b4b2b73a103a37b5b2b760711b604482015290519081900360640190fd5b80156106c2576106c2848383610e9a565b50505050565b60006106d6828401846111c6565b90506107067f00000000000000000000000000000000000000000000000000000000000000008260600151610fe1565b506060810151805160209091015182516107439083907f000000000000000000000000000000000000000000000000000000000000000090610bac565b610772817f00000000000000000000000000000000000000000000000000000000000000008560200151610bac565b7f37f3d8a6a96d03e1a6a820882500d69365ab949261349a3e395facd20b62e7de876040516107a191906115f0565b60405180910390a160006107b9846000015189610b96565b905060006107cb856020015189610b96565b905060007f00000000000000000000000000000000000000000000000000000000000000006001600160a01b031663414bf389604051806101000160405280876001600160a01b03168152602001886001600160a01b03168152602001896080015162ffffff168152602001306001600160a01b031681526020014281526020018960200151815260200186815260200160006001600160a01b03168152506040518263ffffffff1660e01b81526004016108869190611508565b602060405180830381600087803b1580156108a057600080fd5b505af11580156108b4573d6000803e3d6000fd5b505050506040513d601f19601f820116820180604052508101906108d8919061133f565b60408051610100810182526001600160a01b038881168252878116602083015260a08a81015162ffffff16838501523060608401524260808401528a519083015260c08201869052600060e08301819052925163414bf38960e01b815293945091927f00000000000000000000000000000000000000000000000000000000000000009092169163414bf3899161097191600401611508565b602060405180830381600087803b15801561098b57600080fd5b505af115801561099f573d6000803e3d6000fd5b505050506040513d601f19601f82011682018060405250810190610593919061133f565b604080516000808252602082019092526001600160a01b0384169083906040518082805190602001908083835b60208310610a0f5780518252601f1990920191602091820191016109f0565b6001836020036101000a03801982511681845116808217855250505050505090500191505060006040518083038185875af1925050503d8060008114610a71576040519150601f19603f3d011682016040523d82523d6000602084013e610a76565b606091505b50509050806104b8576040805162461bcd60e51b815260206004820152600360248201526253544560e81b604482015290519081900360640190fd5b600081602001516001600160a01b031682600001516001600160a01b031610610ada57600080fd5b50805160208083015160409384015184516001600160a01b0394851681850152939091168385015262ffffff166060808401919091528351808403820181526080840185528051908301206001600160f81b031960a085015294901b6bffffffffffffffffffffffff191660a183015260b58201939093527fe34f199b19b2b4f47f68442619d555527d244f78a3297ea89325f843f87b8b5460d5808301919091528251808303909101815260f5909101909152805191012090565b80820182811015610ba657600080fd5b92915050565b604080516001600160a01b038481166024830152604480830185905283518084039091018152606490920183526020820180516001600160e01b031663095ea7b360e01b1781529251825160009485949389169392918291908083835b60208310610c285780518252601f199092019160209182019101610c09565b6001836020036101000a0380198251168184511680821785525050505050509050019150506000604051808303816000865af19150503d8060008114610c8a576040519150601f19603f3d011682016040523d82523d6000602084013e610c8f565b606091505b5091509150818015610cbd575080511580610cbd5750808060200190516020811015610cba57600080fd5b50515b610cf3576040805162461bcd60e51b8152602060048201526002602482015261534160f01b604482015290519081900360640190fd5b5050505050565b7f00000000000000000000000000000000000000000000000000000000000000006001600160a01b0316846001600160a01b0316148015610d3b5750804710155b15610e5d577f00000000000000000000000000000000000000000000000000000000000000006001600160a01b031663d0e30db0826040518263ffffffff1660e01b81526004016000604051808303818588803b158015610d9b57600080fd5b505af1158015610daf573d6000803e3d6000fd5b50505050507f00000000000000000000000000000000000000000000000000000000000000006001600160a01b031663a9059cbb83836040518363ffffffff1660e01b815260040180836001600160a01b0316815260200182815260200192505050602060405180830381600087803b158015610e2b57600080fd5b505af1158015610e3f573d6000803e3d6000fd5b505050506040513d6020811015610e5557600080fd5b506106c29050565b6001600160a01b038316301415610e7e57610e79848383610e9a565b6106c2565b6106c284848484611004565b80820382811115610ba657600080fd5b604080516001600160a01b038481166024830152604480830185905283518084039091018152606490920183526020820180516001600160e01b031663a9059cbb60e01b1781529251825160009485949389169392918291908083835b60208310610f165780518252601f199092019160209182019101610ef7565b6001836020036101000a0380198251168184511680821785525050505050509050019150506000604051808303816000865af19150503d8060008114610f78576040519150601f19603f3d011682016040523d82523d6000602084013e610f7d565b606091505b5091509150818015610fab575080511580610fab5750808060200190516020811015610fa857600080fd5b50515b610cf3576040805162461bcd60e51b815260206004820152600260248201526114d560f21b604482015290519081900360640190fd5b6000610fed8383610ab2565b9050336001600160a01b03821614610ba657600080fd5b604080516001600160a01b0385811660248301528481166044830152606480830185905283518084039091018152608490920183526020820180516001600160e01b03166323b872dd60e01b178152925182516000948594938a169392918291908083835b602083106110885780518252601f199092019160209182019101611069565b6001836020036101000a0380198251168184511680821785525050505050509050019150506000604051808303816000865af19150503d80600081146110ea576040519150601f19603f3d011682016040523d82523d6000602084013e6110ef565b606091505b509150915081801561111d57508051158061111d575080806020019051602081101561111a57600080fd5b50515b611154576040805162461bcd60e51b815260206004820152600360248201526229aa2360e91b604482015290519081900360640190fd5b505050505050565b80356001600160a01b038116811461117357600080fd5b919050565b803562ffffff8116811461117357600080fd5b60008060006060848603121561119f578283fd5b6111a88461115c565b9250602084013591506111bd6040850161115c565b90509250925092565b60008183036101008112156111d9578182fd5b6040805160c0810167ffffffffffffffff82821081831117156111f857fe5b818452863583526020870135602084015261121484880161115c565b838501526060605f1986011215611229578586fd5b83519450606085019150848210818311171561124157fe5b5082526112506060860161115c565b835261125e6080860161115c565b602084015261126f60a08601611178565b8284015282606082015261128560c08601611178565b608082015261129660e08601611178565b60a082015295945050505050565b600060e082840312156112b5578081fd5b60405160e0810181811067ffffffffffffffff821117156112d257fe5b6040526112de8361115c565b81526112ec6020840161115c565b60208201526112fd60408401611178565b6040820152606083013560608201526080830135608082015261132260a08401611178565b60a082015261133360c08401611178565b60c08201529392505050565b600060208284031215611350578081fd5b5051919050565b60008060408385031215611369578182fd5b823591506113796020840161115c565b90509250929050565b60008060008060608587031215611397578081fd5b8435935060208501359250604085013567ffffffffffffffff808211156113bc578283fd5b818701915087601f8301126113cf578283fd5b8135818111156113dd578384fd5b8860208285010111156113ee578384fd5b95989497505060200194505050565b60008060008060008060008060006101208a8c03121561141b578485fd5b8935985060208a0135975060408a0135965060608a0135955061144060808b0161115c565b945061144e60a08b0161115c565b935060c08a0135925060e08a0135915061146b6101008b0161115c565b90509295985092959850929598565b62ffffff169052565b6001600160a01b0391909116815260200190565b600060018060a01b038616825260208581840152846040840152608060608401528351806080850152825b818110156114de5785810183015185820160a0015282016114c2565b818111156114ef578360a083870101525b50601f01601f19169290920160a0019695505050505050565b81516001600160a01b03908116825260208084015182169083015260408084015162ffffff16908301526060808401518216908301526080808401519083015260a0838101519083015260c0808401519083015260e09283015116918101919091526101000190565b81518152602080830151818301526040808401516001600160a01b03908116828501526060808601518051831691860191909152928301511660808085019190915291015162ffffff1660a08301528201516101008201906115d660c084018261147a565b5060a08301516115e960e084018261147a565b5092915050565b9081526020019056fea2646970667358221220292614a528dcd562c61ad30646a16168976954846a8d457fcbf31efe569c86c364736f6c63430007060033",
    "linkReferences": {}
  },
  "methodIdentifiers": {
    "WETH9()": "4aa4a4fc",
    "_paybackPool(uint256,uint256,uint256,uint256,address,address,uint256,uint256,address)": "abb54e16",
    "factory()": "c45a0155",
    "initFlash((address,address,uint24,uint256,uint256,uint24,uint24))": "2384463b",
    "refundETH()": "12210e8a",
    "swapRouter()": "c31c9c07",
    "sweepToken(address,uint256,address)": "df2ab5bb",
    "uniswapV3FlashCallback(uint256,uint256,bytes)": "e9cbafb0",
    "unwrapWETH9(uint256,address)": "49404b7c"
  },
  "id": 0
}